:020000040800F2
:10000000800C0020DD110008E5110008E711000850
:10001000E9110008EB110008ED11000800000000D4
:10002000000000000000000000000000EF110008C8
:10003000F111000800000000F3110008F51100089C
:10004000F7110008F7110008F7110008F711000870
:10005000F7110008F7110008F7110008F711000860
:10006000F7110008F7110008F7110008890E0008C1
:10007000F7110008F7110008F7110008F711000840
:10008000F7110008F7110008F7110008F711000830
:10009000ED040008F7110008F7110008F711000837
:1000A000F7110008F7110008F7110008F711000810
:1000B000F7110008F7110008F7110008F711000800
:1000C000F7110008F7110008F7110008F7110008F0
:1000D000F7110008F7110008F7110008F7110008E0
:1000E000F7110008F7110008F7110008F7110008D0
:1000F000F7110008F7110008F7110008F7110008C0
:10010000F7110008F7110008F7110008F7110008AF
:10011000F7110008F7110008F71100081D0C00087E
:10012000F7110008F7110008F7110008F71100088F
:1001300000F002F800F03AF80AA090E8000C8244BF
:100140008344AAF10107DA4501D100F02FF8AFF29C
:10015000090EBAE80F0013F0010F18BFFB1A43F0A5
:1001600001031847CC460000EC460000103A24BFBB
:1001700078C878C1FAD8520724BF30C830C144BF0C
:1001800004680C607047000000230024002500264E
:10019000103A28BF78C1FBD8520728BF30C148BFEA
:1001A0000B6070471FB51FBD10B510BD04F005FBF7
:1001B0001146FFF7F7FF00F009F804F023FB03B442
:1001C000FFF7F2FF03BC04F02BFB000000F085FFFB
:1001D00003F022FF1022B949B94804F057FA04F09D
:1001E00095F869E1B7480078F0B9B7480068012888
:1001F0001AD1B6490860502003F014FF0020B4491A
:10020000C1F89C01502003F00DFF0120AF490860A8
:10021000502003F007FF0020AD49C1F89C014FF4C6
:100220007A7003F0FFFE47E1A648007815287DD1DB
:100230000020A849087034E0A4481038006808B9C4
:10024000012000E00020A14910390860322003F0AD
:10025000E9FE9E48103800689C490C39086032203D
:1002600003F0E0FE99480C3800689B490860322092
:1002700003F0D8FE984800689749091F08603220AB
:1002800003F0D0FE9448001F0068934908390860C5
:10029000322003F0C7FE8F480078401C40B28D49E1
:1002A00008708C4890F900000228C5DB00208949BD
:1002B000087034E088480838006808B9012000E078
:1002C0000020854908390860322003F0ABFE8248DF
:1002D000083800688049091F0860322003F0A2FE38
:1002E0007D48001F00687C490860322003F09AFEB8
:1002F0007948006875490C390860322003F092FE95
:1003000072480C380068714910390860322003F0D7
:1003100089FE70480078401C40B26E4908706D48F4
:1003200090F9000002286EDAC4E7FFE7654800781C
:10033000162868D100206749087055E067480068B2
:1003400008B9012000E00020644908606448D0F842
:10035000980108B9012000E000205F490C390860CD
:10036000322003F05FFE5D4800685D49C1F8B001CE
:1003700059480C380068554920310860322003F094
:1003800051FE55480C3000685549C1F8AC014F4842
:10039000203000684D491C310860322003F042FED5
:1003A0004D48083000684E49C1F8A80147481C3044
:1003B0000068464918310860322003F033FE464891
:1003C000001D00684749C1F8BC014048183000686A
:1003D0003E4914310860322003F024FE3D48007885
:1003E000401C40B23B4908703A4890F9000002288E
:1003F000A4DB00203749087059E033489C3000687E
:1004000010B9012001E057E000202F499C3108601D
:100410002F48D0F8B00108B9012000E000202B4996
:1004200014310860322003F0FDFD27489C3000683D
:100430002B49C1F8A8012548143000682349183118
:100440000860322003F0EEFD2348001D00682449B7
:10045000C1F8AC011D48183000681C491C31086007
:10046000322003F0DFFD1C48083000681C49C1F849
:10047000B00116481C300068144920310860322051
:1004800003F0D0FD14480C3000681749C1F888010A
:100490000E482030006810490C390860322003F003
:1004A000C1FD0C480078401C40B20A490870094858
:1004B00090F900000228A0DB94E600007400002000
:1004C000007C000804000020200121429C81214280
:1004D0000080214200000020A401224288812242A3
:1004E00000002242000021420080224200B585B077
:1004F0006A460021F74801F0AEFB05B000BD0120BF
:10050000F5490860F549C1F8A801F5490860091DD9
:100510000860F4490860F4490860091D0860F04962
:1005200008390860091F0860091F0860091F086072
:10053000ED4930310860091F0860091F0860091F74
:100540000860704710B5FFF7DAFF4FF4FA7003F058
:1005500069FD0020E0490860E449C1F8B00132209B
:1005600003F060FD0020DE49091F0860DF49C1F883
:10057000B401322003F056FD0020D9490860DB4960
:10058000C1F8B801322003F04DFD0020D449091D07
:100590000860D649C1F8BC01322003F043FD0020B9
:1005A000D0490860CD49C1F89801322003F03AFDE6
:1005B0000020CC490860C949C1F89801322003F0F5
:1005C00031FD0020C8490860C449C1F89C013220AF
:1005D00003F028FD0020C449091D0860BF49C1F887
:1005E000A001322003F01EFD0020BD49083908603B
:1005F00010BD0020B8490860B849C1F8A801B84941
:100600000860091D0860B7490860B7490860091DFE
:100610000860B34908390860091F0860091F0860AD
:10062000091F0860B04930310860091F0860091FC0
:100630000860091F08607047AD484088AD49498887
:10064000884209DA0120A4490860AB48008840F0DC
:100650000100A949088008E000209F490860A648D9
:10066000008820F00100A4490880A1488088A149A1
:10067000898888420ADA01209949091F08609E4842
:10068000008840F002009C49088009E0002094495D
:10069000091F08609848008820F0020096490880E9
:1006A0009348C0889349C988884209DA01208C4957
:1006B00008609148008840F004008F49088008E0F5
:1006C0000020874908608C48008820F004008A498F
:1006D0000880874800898749098988420ADA012009
:1006E0007F49091D08608448008840F0080082495D
:1006F000088009E000207A49091D08607E480088CA
:1007000020F008007C490880794840897949498966
:10071000884209DA0120734908607748008840F070
:1007200010007549088008E000206E490860724892
:10073000008820F01000704908806D4880896D495C
:100740008989884209DA0120674908606A48008877
:1007500040F020006849088008E0002062490860F5
:100760006548008820F02000634908806048C089FF
:100770006049C98988420ADA01205B49091D08607D
:100780005D48008840F040005B49088009E0002097
:100790005549091D08605848008820F04000564916
:1007A00008805348008A5349098A88420ADA01209E
:1007B0004B49083908605048008840F080004E4995
:1007C000088009E000204649083908604A48008846
:1007D00020F08000484908804548408A4549498AB8
:1007E00088420ADA01203E490C39086042480088F4
:1007F00040F480704049088009E0002038490C39F5
:1008000008603D48008820F480703B4908803848E3
:10081000808A3849898A88420ADA012030491039A9
:1008200008603548008840F400703349088009E0CA
:1008300000202B49103908602F48008820F40070F0
:100840002D4908802A48C08A2A49C98A88420ADA7A
:1008500001202349143908602748008840F480604B
:100860002549088009E000201D4914390860224804
:10087000008820F48060204908801D48008B1D49B5
:10088000098B88420ADA01201749303108601A487A
:10089000008840F400601849088009E000201249EF
:1008A000303108601448008820F400601249088044
:1008B0000F48408B0F49498B88421FDA01200A49B3
:1008C0002C3108600C48008840F480500A490880A8
:1008D0001DE0000000640040BC01214200002242F3
:1008E000AC012242888122428C8121420080214237
:1008F000FA01002074000020020000200020F949C5
:100900000860F948008820F48050F7490880F748CB
:10091000808BF749898B88420ADA0120F149091F47
:100920000860F148008840F40050EF49088009E071
:100930000020EC49091F0860EB48008820F40050B3
:10094000E9490880E948C08BE949C98B88420ADA3D
:100950000120E44908390860E348008840F48040F9
:10096000E149088009E00020DE4908390860DE48D6
:10097000008820F48040DC49088070470120DD4970
:100980000860DD49C1F8A801DC4908600020091DA4
:100990000860DB490860D3492C3908600120091D33
:1009A0000860D64908390860091F08600020091F3F
:1009B0000860091F0860CB49091D08600120091F54
:1009C0000860091F0860091F086070470120C949B5
:1009D0000860C949C1F8A801C84908600020091D7C
:1009E0000860C7490860BF492C390860091D0860C4
:1009F000C24908390860091F0860091F0860091FFB
:100A00000860B849091D08600120091F0860091F16
:100A10000860091F086070470020B6490860B649A1
:100A2000C1F8A801B5490860091D0860B44908600B
:100A3000AC492C3908600120091D0860AF4908390C
:100A40000860091F08600020091F0860091F08606E
:100A5000A449091D0860091F0860091F0860091FD3
:100A60000860704710B5FFF7C4FD4FF4FA7003F04B
:100A7000D9FA0120A14908390860322003F0D2FADE
:100A80000120A049C1F890019C490C39086032202E
:100A900003F0C8FA012093492C39086097491039AE
:100AA0000860322003F0BEFA01209549086092499F
:100AB000C1F89801322003F0B5FA01208F49091DD1
:100AC00008609049C1F8BC01322003F0ABFA012064
:100AD0008A4908608B49C1F8B801322003F0A2FAB4
:100AE00001208649091F08608649C1F8B4013220F7
:100AF00003F098FA01207F4908607A4908390860B4
:100B00004FF4FA7003F08EFA10BD10B579489C3896
:100B10000068002837D1012072491C3908607A48E2
:100B20000088401C7849088008460088962874D1BF
:100B300000206C491C3908607448007838B90120DD
:100B400072490870FFF78EFFFFF766FF65E06F4898
:100B50000078012805D115206C490870FFF749FD80
:100B60005BE06A480078022805D1162067490870C2
:100B7000FFF73FFD51E06548007803284DD117206D
:100B80006249087049E05B489C380068012844D1FC
:100B90005E48007818B1002052491C3908605A4854
:100BA0000088032822DD5848008896281EDA574816
:100BB0000078012803D102205449087016E05348F8
:100BC0000078022803D10320504908700EE04F48F6
:100BD0000078032807D04D480078152803D04B48EB
:100BE0000078162802D1012048490870474800784B
:100BF000012802D1FFF710FF0CE0444800780228DA
:100C000002D1FFF7E3FE05E040480078032801D158
:100C1000FFF7B4FE00203C49088010BD10B5FFF777
:100C200074FF3A48007848B903F0DBFBFFF704FD96
:100C3000042202212C4803F0FCF820E1334800781C
:100C4000152825D103F0CDFB0020314908701AE0AA
:100C500030482F49097830F8110024492C4A12787D
:100C600031F81210884209DA20482949097830F809
:100C700011102848264A127820F8121024480078CB
:100C8000401C23490870224800781028E0DBF6E079
:100C90001E480078162841D103F0A3FB00201C4910
:100CA00008701AE01C481A49097830F811000F49F9
:100CB000174A127831F81210884209DD0B4814499E
:100CC000097830F811001449114A127821F81200FD
:100CD0000F480078401C0E4908700D480078102815
:100CE000E0DBCCE0B881214202000020FA010020C4
:100CF00074000020BC01214200002242AC012242CB
:100D00008881224200802142060000200400002049
:100D100008000020540000200A000020A6480078A7
:100D200017288AD10020A54908704CE0A448A3499F
:100D3000097830F8110080B3A248A049097830F84A
:100D4000110041F28831884228D09D489B4909789A
:100D500030F811109B48994A127830F812008142FD
:100D60001CDA98489549097830F8110000EB4000EA
:100D70000A2190FBF1F19248904A127830F8120063
:100D8000C0EBC0000A2290FBF2F0084481B28E480A
:100D90008A4A127820F8121003E0FFE70020864903
:100DA000087000208649854A127821F8120041F225
:100DB00088308449814A127821F812007F480078EF
:100DC000401C7E4908707D4800781028AEDB7A48C8
:100DD0000078172851D110227B497C4803F067FC2A
:100DE000FFF707FC0020754908703FE0322003F050
:100DF00019F97748006808B9012000E0002074491B
:100E000008607448D0F8880108B9012000E000208B
:100E1000714908607148D0F88C0108B9012000E0E0
:100E200000206F4908606F48D0F89C0108B9012084
:100E300000E000206649143908606A48D0F898013B
:100E400008B9012000E000206149183908606348B2
:100E5000D0F8BC0108B9012000E000206049303121
:100E6000086056480078401C544908705348007880
:100E70001428BBDB002050490870FFF763FB0121F9
:100E8000594802F00DFD10BD10B5022001F03CFAEA
:100E900001287DD1022001F04BFA022001F067FA0F
:100EA000524801885248534A127820F812104F488D
:100EB00041884F4812304F4A127820F812104B48A0
:100EC00081884B4824304B4A127820F8121047484A
:100ED000C18847483630474A127820F812104348F4
:100EE000018943484830434A127820F812103F489D
:100EF00041893F485A303F4A127820F812103B4847
:100F000081893B486C303B4A127820F812103748F0
:100F1000C18937487E30374A127820F8121033489A
:100F2000018A33489030334A127820F812102F4843
:100F3000418A2F48A2302F4A127820F812102B48ED
:100F4000818A2B48B4302B4A127820F81210274897
:100F5000C18A2748C630274A127820F81210234841
:100F6000018B2348D830234A127820F812101F48EA
:100F7000418B1F48EA301F4A127820F812101B4894
:100F8000818B1B48FC301B4A127820F8121000E0BD
:100F900011E01648C18B1848164A127820F8121032
:100FA00014480078401C1349087008460078092846
:100FB00001D10020087010BD0400002008000020AE
:100FC000540000200A00002074000020007C00086B
:100FD000B0012242008022428881224200802142C8
:100FE0008C8121420000224200140040A800002011
:100FF000C80000202A000020D60100200CB50020E7
:10100000019000906C48006840F480306A490860A4
:1010100000BF6948006800F4003000900198401C4F
:101020000190009818B90198B0F5A06FF1D162480D
:10103000006800F4003010B10120009001E00020B1
:1010400000900098012843D15C48006840F01000EF
:101050005A4908600846006820F003000860084606
:10106000006840F0020008605348406852494860F8
:101070000846406848600846406840F48060486020
:101080000846406820F47C1048600846406840F4F8
:10109000E81048600846006840F08070086000BFB3
:1010A0004548006800F000700028F9D042484068C8
:1010B00020F00300404948600846406840F00200C4
:1010C000486000BF3C48406800F00C000828F9D197
:1010D0000CBD10B5FFF792FF10BD10B53648006883
:1010E00040F001003449086008464068344908402F
:1010F0003149486008460068324908402E49086076
:101100000846006820F4802008600846406820F403
:10111000FE0048604FF41F008860FFF7DAFF4FF0D1
:1011200000602949086010BD10B500210020002290
:10113000214B5B6803F00C0121B1042906D008297A
:1011400028D107E0214B224C236027E01F4B204C85
:10115000236023E0184B5B6803F47010164B5B6848
:1011600003F48032022303EB904022B9194B43432E
:10117000174C23600DE0104B5B6803F4003323B180
:10118000144B4343124C236003E0104B4343104C79
:10119000236003E00D4B0E4C236000BF00BF064BE5
:1011A0005B68C3F303130C4CE15C094B1B68CB4039
:1011B000074C236010BD00000010024000200240D8
:1011C0000000FFF8FFFFF6FE08ED00E000127A00D5
:1011D0002C00002000093D00300000200948804715
:1011E00009480047FEE7FEE7FEE7FEE7FEE7FEE709
:1011F000FEE7FEE7FEE7FEE704480549054A064B21
:1012000070470000DB100008310100088006002054
:10121000800C002080080020800800203149014314
:10122000314A1160704770B5002100230F22C47845
:1012300004B32D4C246804F4E064C4F5E064210A8E
:10124000C1F10403CA40447804FA03F184781440DD
:1012500021430901254C0678A155047804F01F05A7
:101260000124AC4005786D11AD0005F1E025C5F80D
:10127000004109E0047804F01F050124AC401C4D36
:101280000678761145F8264070BD1A4A0A40024396
:10129000154B1B1F1A60704739B1134A121D126893
:1012A0000243114B1B1D1A6006E00F4A121D126803
:1012B00082430D4B1B1D1A607047042808D14FF064
:1012C000E021096941F004014FF0E022116107E0DB
:1012D0004FF0E021096921F004014FF0E022116193
:1012E000704700000000FA050CED00E000E400E0AB
:1012F00080E100E080FFFF1F10B50446FA488442F9
:1013000008D10121401501F077FB0021601501F0A3
:1013100073FB17E0F548844208D10121001501F064
:101320006BFB0021201501F067FB0BE0F0488442C5
:1013300008D10121C80301F05FFB00214FF40040F8
:1013400001F05AFB10BD30B5024600200023506862
:10135000E84C20400D790C6844EA05242043506095
:101360009068E54C2040D1E902542C434D7944EA81
:10137000450420439060D06A20F470000C7C641E09
:10138000E4B2234340EA0350D06230BD0021016043
:10139000017141718160C16001210174704721B107
:1013A000826842F00102826003E0826822F001025A
:1013B0008260704721B1826842F48072826003E0EB
:1013C000826822F480728260704710B50023CBB22D
:1013D0001AB144681C43446002E044689C43446082
:1013E00010BD816841F0080181607047014600200E
:1013F0008A6802F008020AB1012000E0002070476C
:10140000816841F0040181607047014600208A68CC
:1014100002F004020AB1012000E00020704721B16F
:10142000826842F4A002826003E0826822F4A00293
:1014300082607047014600208A6802F480020AB187
:10144000012000E00020704710B50A46002100236B
:10145000416821F46041531E41EA4331416010BDAF
:1014600021B1426842F40062426003E0426822F423
:10147000006242607047F0B504460D46002000212E
:10148000092D11DDE068A5F10A0606EB46070726DF
:1014900006FA07F18843A5F10A0606EB460603FAA9
:1014A00006F10843E0600CE0206905EB45070726DC
:1014B00006FA07F1884305EB450603FA06F10843EF
:1014C0002061072A0FDA606B561E06EB86071F267F
:1014D00006FA07F18843561E06EB860605FA06F162
:1014E0000843606322E00D2A0FDA206BD61F06EB5B
:1014F00086071F2606FA07F18843D61F06EB8606E5
:1015000005FA06F10843206310E0E06AA2F10D0637
:1015100006EB86071F2606FA07F18843A2F10D069F
:1015200006EB860605FA06F10843E062F0BD21B13C
:10153000826842F48012826003E0826822F48012A2
:10154000826070470146C86C80B2704766484C3074
:101550000068704721B1426842F48062426003E053
:10156000426822F480624260704721B1426842F4CE
:101570008052426003E0426822F480524260704729
:101580000A460021816821F4E041114381607047DF
:1015900021B1826842F40042826003E0826822F452
:1015A00000428260704721B1826842F40212826078
:1015B00003E0826822F40212826070470146002034
:1015C0008A6802F400120AB1012000E0002070478E
:1015D000F0B504461546002000220026092911DD39
:1015E000E068A1F10A0707EB470C072707FA0CF29E
:1015F0009043A1F10A0707EB470703FA07F21043EC
:10160000E0600CE0206901EB410C072707FA0CF2BF
:10161000904301EB410703FA07F210432061A06BEE
:10162000C0F30156EF1C06F1010CA7EB0C0707EB0A
:10163000870C1F2707FA0CF29043EF1C06F1010CF0
:10164000A7EB0C0707EB870701FA07F21043A0632B
:10165000F0BD10B50A4600210023816B21F4401132
:10166000531E41EA0351816310BD08B50023009366
:101670000090009B0B440093009B1A6008BD08B5C6
:10168000024600200090009201F12800009B1844BF
:1016900000900098006880B208BD0A4600214168A9
:1016A000164B194011434160704741628262704796
:1016B0000A460021416821F01F0111434160704733
:1016C00040B109490831096841F40001064A08326D
:1016D000116007E004490831096821F40001024A59
:1016E00008321160704700000024014000280140CA
:1016F000003C0140FFFEF0FFFDF7F1FFFFFD3FFF63
:101700000246002013680B400BB1012000E00020CE
:101710007047CA430260704770B50246002000233C
:1017200000240B125568CEB205EA060415681D4068
:1017300015B10CB1012000E0002070BD00220A129A
:10174000D34303607047000010B50446FE4884424E
:1017500009D10121480601F05CF900214FF0007029
:1017600001F057F908E00121880601F052F9002143
:101770004FF0806001F04DF910BD30B502460020F9
:101780000023146824F002041460146844F0010477
:10179000146000E05B1C546804F001041CB94FF6AF
:1017A000FF74A342F6D1546804F001040CB9002080
:1017B0006CE08C79012C04D1146844F0800414602E
:1017C00003E0146824F080041460CC79012C04D167
:1017D000146844F04004146003E0146824F04004EA
:1017E00014600C7A012C04D1146844F020041460B5
:1017F00003E0146824F0200414604C7A012C04D116
:10180000146844F01004146003E0146824F0100419
:1018100014608C7A012C04D1146844F0080414601C
:1018200003E0146824F008041460CC7A012C04D17D
:10183000146844F00404146003E0146824F0040401
:1018400014608C78A407CD7844EA05640D7944EAE5
:1018500005444D7944EA05540D886D1E2C43D4612E
:10186000146824F001041460002300E05B1C546839
:1018700004F001041CB14FF6FF74A342F6D1546882
:1018800004F001040CB1002000E0012030BD10B5CF
:101890000021837A012202FA03F1AC4A126842F075
:1018A0000102AA4B1A60A94A1C3212688A43A74B4C
:1018B0001C331A60027BCAB9A44A0C3212688A43EC
:1018C000A24B0C331A604288C38842EA03439F4A02
:1018D0004032847A42F834300288838842EA0343F3
:1018E0009A4A4032847A02EBC4025360027B012A96
:1018F00019D1964A0C3212680A43944B0C331A6081
:101900004288038842EA0343904A4032847A42F88C
:101910003430C288838842EA03438C4A4032847A56
:1019200002EBC4025360C27A3AB9884A121D1268A7
:101930008A43864B1B1D1A6006E0844A121D1268FA
:101940000A43824B1B1D1A60028932B97F4A143246
:1019500012688A437D4B14331A600289012A06D12A
:101960007A4A143212680A43784B14331A60427B65
:10197000012A06D1754A1C3212680A43734B1C3384
:101980001A60724A126822F00102704B1A6010BD90
:1019900000218171C171017241728172C1728170C5
:1019A000C170032101710221417101210180704741
:1019B0006649096841F00101644A116011460968ED
:1019C00043F60E729143614A11601146096841EA7B
:1019D000002111601146096821F001011160704772
:1019E00021B1026842F48032026003E0026822F40E
:1019F000803202607047E1B1026842F0800202600A
:101A00004FF4C272125842F480734FF4C2721350F2
:101A10004FF4CA72125842F480734FF4CA721350D2
:101A20004FF4D272125842F480734FF4D2721350B2
:101A30001BE0026822F0800202604FF4C27212586A
:101A400022F480734FF4C27213504FF4CA721258CA
:101A500022F480734FF4CA7213504FF4D2721258AA
:101A600022F480734FF4D2721350704710B50246BF
:101A70000020936803F08063B3F1806F00D110E021
:101A8000936803F00063B3F1006F01D1012008E017
:101A9000936803F08053B3F1805F01D1022000E02E
:101AA0000420042879D002F5C07303EB00131B68EF
:101AB00003F0010402F5C07303EB00131C600B7A02
:101AC0007BB94B7A0C8843EA445302F5C07404EBAB
:101AD00000142468234302F5C07404EB001423604F
:101AE00010E00B7A4C6843EAC4034C7A234302F5B6
:101AF000C07404EB00142468234302F5C07404EBA3
:101B0000001423608B7A03F00F038B7202F5C0730D
:101B100003EB00135B6823F00F0402F5C07303EBC3
:101B200000135C6002F5C07303EB00135B688C7AF2
:101B3000234302F5C07404EB001463608B7B1C0626
:101B40004B7B44EA034403E000640040006600402D
:101B50000B7B44EA0323CC7A234302F5C07404EBE5
:101B60000014A3608B7C1C064B7C44EA03440B7C72
:101B700044EA0323CC7B234302F5C07404EB001436
:101B8000E36002F5C07303EB00131B6843F001042C
:101B900002F5C07303EB00131C6010BD10B50246C4
:101BA000002321B1012907D002290FD109E0906853
:101BB000F94C00EA04030BE09068F84C00EA0403D7
:101BC00006E09068F64C00EA040301E0002300BF41
:101BD00000BFF44C181BA34216D007DC83B16FF092
:101BE0008060184470B1022818D111E0B0F5007F70
:101BF00010D0ED4C204448B1B0F5003F0ED10BE0C1
:101C000002230DE000230BE0002309E0002307E09E
:101C1000012305E0012303E0012301E0002300BFCD
:101C200000BFD8B210BD21B1012907D002290FD1C0
:101C300009E0826842F0800282600AE0826842F431
:101C40000042826005E0826842F40002826000E0A7
:101C500000BF00BF704710B500F5D87303EB011348
:101C60001B6803F004031372137A53B900F5D87399
:101C700003EB01131B6840F2FF7404EA5353136033
:101C800009E000F5D87303EB01131B686FF06044A3
:101C900004EAD303536000F5D87303EB01131B6808
:101CA00003F00203537200F5D87303EB01135B6872
:101CB00003F00F03937200F5D87303EB01135B6815
:101CC0001B0AD37400F5D87303EB01139B68D3721E
:101CD00000F5D87303EB01139B681C0A147300F51D
:101CE000D87303EB01139B681C0C547300F5D87375
:101CF00003EB01139B681B0E937300F5D87303EB82
:101D00000113DB68D37300F5D87303EB0113DB68B1
:101D10001C0A147400F5D87303EB0113DB681C0C68
:101D2000547400F5D87303EB0113DB681B0E937436
:101D300021B9C36843F02003C36003E0036943F0A3
:101D40002003036110BD21B9C26842F02002C260C5
:101D500003E0026942F0200202617047024600205F
:101D600019B9D36803F0030006E0012903D1136910
:101D700003F0030000E00020704710B502460B4658
:101D800000204FF6FF71BBB9146824F0020444F040
:101D90000104146000E0491E546804F00304012C9F
:101DA00001D00029F7D1546804F00304012C01D0BC
:101DB000002032E0012030E0012B13D1146824F020
:101DC0000304146000E0491E546804F003040CB1DD
:101DD0000029F8D1546804F003040CB100201CE081
:101DE00001201AE0022B17D1146824F0010444F0FA
:101DF0000204146000E0491E546804F00304022C3D
:101E000001D00029F7D1546804F00304022C01D05A
:101E1000002002E0012000E0002010BD014600206B
:101E20000A6822F0010242F002020A604A6802F0E7
:101E30000302022A00D10120704701464FF6FF72CB
:101E400000200B6823F002030B6000E0521E4B6879
:101E500003F00203022B01D1002AF7D14B6803F0F3
:101E60000203022B00D001207047014600208A693E
:101E700002F070007047014600208A69100E70471A
:101E8000014600208A69C2F3074070471AB14369CE
:101E90000B43436102E043698B434361704710B5D4
:101EA0000246002001F4700343B19369C1F31304A7
:101EB00023400BB101202DE000202BE001F08073C6
:101EC00043B15368C1F3130423400BB1012021E057
:101ED00000201FE001F0006343B19368C1F31304D5
:101EE00023400BB1012015E0002013E001F0007346
:101EF00043B1D368C1F3130423400BB1012009E0BF
:101F0000002007E01369C1F3130423400BB1012043
:101F100000E0002010BD0022244B994202D1002392
:101F2000836111E0C1F3130201F000730BB1C260D1
:101F30000AE001F080630BB1026105E001F000638B
:101F40000BB1826000E0426070470246002002EA66
:101F500001030BB1012000E00020704770B504467A
:101F60000D46002660692840002872D0B5F5807FB4
:101F700069D01DDC082D42D006DC012D2DD0022DAC
:101F800031D0042D7FD134E0102D3ED0202D42D011
:101F9000402D78D145E00000030000040003000854
:101FA00000000310000100080001FFF77000F0308E
:101FB000B5F5004F61D009DCB5F5007F4AD0B5F525
:101FC000806F4DD0B5F5006F5DD150E0B5F5803F25
:101FD0002DD0B5F5003F56D12FE0A0685549FFF749
:101FE000B4FF064651E0E0680321FFF7AEFF064666
:101FF0004BE0E0680821FFF7A8FF064645E0E068EF
:102000001021FFF7A2FF06463FE020690321FFF7FA
:102010009CFF064639E020690821FFF796FF064637
:1020200033E020691021FFF790FF06462DE060683D
:102030000821FFF78AFF064627E060681021FFF7B6
:1020400084FF064621E0A0690121FFF77EFF0646D6
:102050001BE01BE0A0690221FFF777FF064614E0B2
:10206000A0690421FFF771FF06460EE00BE0A069AE
:102070007021FFF76AFF064607E060680421FFF75A
:1020800064FF064601E0002600BF00E0002630465F
:1020900070BDB1F5007F3AD00FDC202928D006DCD6
:1020A00001291CD004291DD0082940D11DE0402958
:1020B00021D0B1F5807F3AD126E0B1F5004F31D083
:1020C00006DCB1F5806F25D0B1F5006F2FD124E08B
:1020D000B1F5803F12D0B1F5003F28D111E0154A8B
:1020E000826025E00822C26022E01022C2601FE068
:1020F000082202611CE01022026119E008224260FD
:1021000016E01022426013E00422426010E0042234
:1021100042600DE0042242600AE000228261042253
:10212000426005E0002282610422426000E000BFBC
:1021300000BF70470101010001684FF6FE721140B7
:1021400001600021016041608160C1608D49884269
:1021500008D18C490839496841F00F01894A083A89
:1021600051608AE087491431884208D1854908398D
:10217000496841F0F001834A083A51607DE08149A5
:102180002831884208D17F490839496841F4706193
:102190007C4A083A516070E07A493C31884208D163
:1021A00078490839496841F47041764A083A5160E3
:1021B00063E074495031884208D17249083949684E
:1021C00041F470216F4A083A516056E06D4964311C
:1021D000884208D16B490839496841F47001694A5D
:1021E000083A516049E067497831884208D1654929
:1021F0000839496841F07061624A083A51603CE030
:102200006149884206D1011F096841F00F01021F90
:10221000116032E05C491431884208D15A49091FE3
:10222000096841F0F001584A121F116025E0564933
:102230002831884208D15449091F096841F4706166
:10224000514A121F116018E04F493C31884208D1B1
:102250004D49091F096841F470414B4A121F116032
:102260000BE049495031884207D14749091F0968A5
:1022700041F47021444A121F1160704710B50022CA
:10228000026847F6F0739A430C6A8B6823430C6923
:1022900023434C6923438C692343CC6923434C6A11
:1022A00023438C6A23431A430260CB6843600B6864
:1022B00083604B68C36010BD002101604160816094
:1022C000C160016141618161C161016241628162FC
:1022D000704721B1026842F00102026004E0026826
:1022E0004FF6FE731A40026070471AB103680B4341
:1022F000036002E003688B430360704741607047EE
:102300000146486880B2704701460020002201F073
:1023100080531BB11C4B083B1A6802E0194B083B69
:102320001A6802EA01030BB1012000E000207047A7
:1023300000F0805119B11449091F086002E01149E9
:1023400008394860704701460020002201F08053A0
:102350001BB10D4B083B1A6802E00A4B083B1A6898
:1023600002EA01030BB1012000E00020704700F0F9
:10237000805119B10449091F086002E00149083978
:1023800048607047080002400804024010B5044647
:10239000CC48844208D10121042000F02DFB00210B
:1023A000042000F029FB46E0C748844208D10121FF
:1023B000082000F021FB0021082000F01DFB3AE07E
:1023C000C248844208D10121102000F015FB0021F1
:1023D000102000F011FB2EE0BD48844208D10121FD
:1023E000202000F009FB0021202000F005FB22E066
:1023F000B848844208D10121402000F0FDFA0021B4
:10240000402000F0F9FA16E0B348844208D10121D7
:10241000802000F0F1FA0021802000F0EDFA0AE0BF
:10242000AE48844207D10121801500F0E5FA002171
:10243000A01500F0E1FA10BD10B50121084600F02A
:10244000DBFA0021012000F0D7FA10BD2DE9F041A0
:10245000024600250026002000230024002791F8D2
:1024600003C00CF00F0591F803C00CF0100CBCF188
:10247000000F03D091F802C04CEA050591F800C0A6
:10248000BCF1000F31D0146800202BE04FF0010C9C
:102490000CFA00F3B1F800C00CEA03069E4220D10A
:1024A00083004FF00F0C0CFA03F7BC4305FA03FC52
:1024B0004CEA040491F803C0BCF1280F06D14FF098
:1024C000010C0CFA00FCC2F814C00AE091F803C039
:1024D000BCF1480F05D14FF0010C0CFA00FCC2F81A
:1024E00010C0401C0828D1D31460B1F800C0BCF162
:1024F000FF0F34DD546800202EE000F1080C4FF08F
:10250000010808FA0CF3B1F800C00CEA03069E4279
:1025100021D183004FF00F0C0CFA03F7BC4305FAEE
:1025200003FC4CEA040491F803C0BCF1280F05D168
:1025300000F1080C08FA0CF8C2F8148091F803C0F6
:10254000BCF1480F07D100F1080C4FF0010808FA60
:102550000CF8C2F81080401C0828CED35460BDE8A7
:10256000F0814FF6FF710180022181700421C1705A
:1025700070470246002093680B400BB1012000E039
:10258000002070470146886880B2704702460020EC
:10259000D3680B400BB1012000E0002070470146DA
:1025A000C86880B2704701617047416170470AB1E5
:1025B000016100E041617047C16070474FF48032B3
:1025C0000A43826181618261826982697047024641
:1025D0000020434B18684FF68073184040EA021001
:1025E00008433F4B186070473E49C8617047F0B5DB
:1025F0000A46002300240021002500F00046B6F121
:10260000004F02D1364EF16901E0354E7168C0F3DA
:10261000034583B200F44016B6F5401F08D121F0FF
:1026200070612F4E766826F070662D4F7E6012E046
:1026300000F48016B6F5801F06D1032606FA05F4CD
:10264000A14341F0706106E0460D360103FA06F63B
:10265000B14341F0706122B1460D360103FA06F62E
:10266000314300F00046B6F1004F02D11C4EF1613B
:1026700001E01B4E7160F0BD30B500228B071C0FCE
:102680000F2303FA04F2164B08338C1053F824304E
:102690009343134C08348D1044F8253023468C1096
:1026A00053F824308C07240F00FA04F423430C4C15
:1026B00008348D1044F8253030BD0A49DC310860FB
:1026C0007047000000080140000C0140001001406C
:1026D0000014014000180140001C0140002001408E
:1026E0000000014000002042DF48006840F0010087
:1026F000DD49086008464068DC490840DA4948601E
:1027000008460068DA490840D7490860084600686A
:1027100020F4802008600846406820F4FE004860ED
:102720004FF41F0088607047CF49096821F4803159
:10273000CD4A11601146096821F480211160B0F57D
:10274000803F03D0B0F5802F0ED106E0C64909685E
:1027500041F48031C44A116007E0C349096841F47B
:10276000A021C14A116000E000BF00BF704710B552
:1027700001460022002300204A11012A02D1BA4C4E
:10278000236806E0022A02D1B74C236A01E0B64C66
:10279000636A01F01F02012494401C400CB1012027
:1027A00000E0002010BD38B5002000900024002576
:1027B00000BF3120FFF7DBFF05460098401C00906A
:1027C0000098B0F5A06F01D0002DF2D03120FFF7B6
:1027D000CEFF08B1012400E00024204638BD0146A8
:1027E0000020A14A106820F0F80040EAC100106003
:1027F0007047A04908607047024600209A4B58680D
:1028000020F47C1042EA01031843974B586070474C
:1028100098490866704701460020934A506820F0A6
:1028200003000843506070478F48406800F00C0078
:102830007047014600208C4A506820F0F0000843A1
:102840005060704701460020874A506820F4E060DD
:1028500008435060704701460020834A506820F4C6
:10286000605040EAC1005060704729B17E4A527AF8
:1028700002437D4B5A7204E07B4A527A82437A4B80
:102880005A7270477B49D831086070470146002072
:10289000754A506820F4404008435060704700215A
:1028A000714A20321170704A82F82010012802D03B
:1028B00004280AD104E001216B4A2032117005E09E
:1028C0000521694A2032117000E000BF00BF704747
:1028D0006949086070476449096A0143624A1162A4
:1028E0007047654944390860704730B500210022BF
:1028F000002400235C4D6D6805F00C0121B1042912
:1029000005D0082923D105E05C4D056022E05B4D30
:1029100005601FE0544D6D6805F47012524D6D68EE
:1029200005F48034022505EB92421CB9544D554301
:1029300005600BE04C4D6D6805F400351DB1504D40
:102940005543056002E04D4D5543056002E04B4D97
:10295000056000BF00BF444D6D6805F0F001090936
:10296000484D6B5C0568DD4045603F4D6D6805F482
:10297000E061090A434D6B5C4568DD4085603A4D76
:102980006D6805F46051C90A3E4D6B5C4568DD40D9
:10299000C560354D6D6805F44041890B3A4D6B5C5F
:1029A000C568B5FBF3F5056130BD29B12E4A526902
:1029B00002432D4B5A6104E02B4A526982432A4B51
:1029C0005A61704729B1284A92690243264B9A619D
:1029D00004E0254A92698243234B9A61704729B1EA
:1029E000214AD2690243204BDA6104E01E4AD269CF
:1029F00082431D4BDA61704729B11B4AD2680243FA
:102A0000194BDA6004E0184AD2688243164BDA6048
:102A1000704729B1144A12690243134B1A6104E04A
:102A2000114A12698243104B1A61704712494039AA
:102A3000086070470F49C86470470B49C8717047F8
:102A40000948406A40F08070074948627047014673
:102A50000020054A92680A400AB1012000E00020E7
:102A60007047014988727047001002400000FFF86B
:102A7000FFFFF6FE000042428004424200127A004C
:102A800000093D00400000205000002010B5044621
:102A9000FE48844208D10121C014FFF7ADFF002198
:102AA000E014FFF7A9FFC4E0B4F1804F08D1012181
:102AB0000846FFF7AEFF00210120FFF7AAFFB8E0AC
:102AC000F348844208D101210220FFF7A2FF002130
:102AD0000220FFF79EFFACE0EE48844208D10121BE
:102AE0000420FFF796FF00210420FFF792FFA0E0EB
:102AF000E948844208D101210820FFF78AFF00211C
:102B00000820FFF786FF94E0E448844208D10121C1
:102B10001020FFF77EFF00211020FFF77AFF88E0EA
:102B2000DF48844208D101212020FFF772FF0021F5
:102B30002020FFF76EFF7CE0DA48844208D10121B3
:102B40004014FFF759FF00216014FFF755FF70E0B4
:102B5000D548844209D10121C804FFF74DFF002167
:102B60004FF40020FFF748FF63E0D048844209D1CA
:102B700001210805FFF740FF00214FF48010FFF707
:102B80003BFF56E0CA48844209D101214805FFF7BE
:102B900033FF00214FF40010FFF72EFF49E0C54836
:102BA000844208D101214020FFF733FF002140205B
:102BB000FFF72FFF3DE0C048844208D1012180206B
:102BC000FFF727FF00218020FFF723FF31E0BB48FC
:102BD000844208D101218015FFF71BFF0021A015B9
:102BE000FFF717FF25E0B648844209D10121080408
:102BF000FFF702FF00214FF48030FFF7FDFE18E0E1
:102C0000B048844209D101214804FFF7F5FE0021B4
:102C10004FF40030FFF7F0FE0BE0AB48844208D1E0
:102C200001218804FFF7E8FE00214FF48020FFF720
:102C3000E3FE10BD00220288944B98420ED0994BBF
:102C400098420BD0B0F1804F08D0914B984205D0FC
:102C5000904B984202D0904B984204D14FF68F731C
:102C60001A404B881A438D4B984207D08C4B9842A0
:102C700004D04FF6FF431A40CB881A4302808B885A
:102C800083850B880385814B98420BD0854B9842F6
:102C900008D08B4B984205D08A4B984202D08A4B81
:102CA000984201D10B7A038601238382704770B565
:102CB000002400220023058C4FF6FE763540058463
:102CC000028C8388048B4FF68F752C40B51E2C40E8
:102CD0000D882C43751E2A400D892A434D882A43AE
:102CE0006A4DA8420BD06F4DA84208D0744DA8423F
:102CF00005D0744DA84202D0734DA84213D14FF6AF
:102D0000F7752A404D892A434FF6FB752A408D8876
:102D10002A434FF6FF652B404FF6FF552B408D8918
:102D20002B43CD892B4383800483CD888586028401
:102D300070BD70B5002400220023058C4FF6EF769D
:102D400035400584028C8388048B48F6FF752C403F
:102D50004FF6FF452C400D884FF6FF7606EA052515
:102D60002C434FF6DF752A400D8906EA05152A43E4
:102D70004D8806EA05152A43444DA84202D0494D24
:102D8000A8421DD14FF67F752A404D894FF6FF7638
:102D900006EA05152A434FF6BF752A408D8806EAD4
:102DA00005152A434FF6FF352B404FF2FF752B4098
:102DB0008D8906EA85052B43CD8906EA85052B43D7
:102DC00083800483CD880587028470BD70B500249C
:102DD00000220023058C4FF6FF6635400584028CE7
:102DE0008388848B4FF68F752C404FF6FC752C40F2
:102DF0000D882C434FF6FF552A400D894FF6FF767C
:102E000006EA05252A434D8806EA05252A431F4D73
:102E1000A84202D0234DA8421DD14FF2FF752A408F
:102E20004D894FF6FF7606EA05252A434FF6FF3512
:102E30002A408D8806EA05252A434EF6FF752B4069
:102E40004DF6FF752B408D8906EA05152B43CD897C
:102E500006EA05152B4383808483CD888587028409
:102E600070BD70B5002200230024058C4EF6FF765D
:102E700035400584038C8488828B48F6FF752A4090
:102E80004FF6FF452A400D8820E00000002C01404D
:102E90000004004000080040000C0040001000400A
:102EA0000014004000340140004C0140005001403B
:102EB0000054014000180040001C00400020004069
:102EC0000040014000440140004801404FF6FF76B9
:102ED00006EA05252A434DF6FF752B400D8906EAC3
:102EE00005352B434D8806EA05352B43FA4DA8429C
:102EF00002D0FA4DA84208D14BF6FF752C408D89BF
:102F00004FF6FF7606EA85152C4384808283CD88B0
:102F1000A0F84050038470BD828B4FF2FF331A40FB
:102F20008283828B4FF6FF7303EA01231A43828365
:102F30007047F0B50C461546002200210026078C8C
:102F40004EF6FF7C07EA0C070784828B018C4FF654
:102F5000FF7707EA043640F6FF473A404FF6FF771F
:102F600007EA05273A434FF6FF7707EA03373A4364
:102F7000D94FB8420ED0D94FB8420BD0B0F1804FE4
:102F800008D0D74FB84205D0D64FB84202D0D64F5E
:102F9000B84206D14DF6FF77394046F480573943A1
:102FA00005E047F6FF57394044F4805739438283A0
:102FB0000184F0BD828B4FF6F3731A408283828BBB
:102FC0000A4382837047F0B50C4615460022002163
:102FD0000026078C4FF6FF6C07EA0C070784828BEC
:102FE000018C4FF6FF7707EA04264FF60C773A403C
:102FF0004FF6FF7707EA03172F433A43B64FB8421D
:103000000ED0B64FB8420BD0B0F1804F08D0B44FBD
:10301000B84205D0B34FB84202D0B34FB84206D140
:103020004FF6FF57394046F48077394305E04FF2B9
:10303000FF57394044F48077394382830184F0BDDF
:10304000028B4FF2FF331A400283028B4FF6FF735D
:1030500003EA01231A4302837047F0B50C46154674
:10306000002200210026078C4FF6EF7C07EA0C07B0
:103070000784028B018C4FF6FF7707EA041640F6AF
:10308000FF473A404FF6FF7707EA03373A434FF6D8
:10309000FF7707EA05273A438F4FB8420ED08F4F8C
:1030A000B8420BD0B0F1804F08D08D4FB84205D058
:1030B0008C4FB84202D08C4FB84206D14FF6DF7722
:1030C000394046F01007394305E04FF65F77394045
:1030D00044F01007394302830184F0BD028B4FF6A0
:1030E000F3731A400283028B0A4302837047F0B5E0
:1030F0000C46154600220021068C4FF6FE773E4016
:103100000684028B018C4FF60C7632407E1C06EA58
:1031100003162E433243704EB0420ED06F4EB04273
:103120000BD0B0F1804F08D06D4EB04205D06D4E3F
:10313000B04202D06C4EB04206D14FF6FD7631401F
:1031400044F00106314305E04FF6F576314044F096
:103150000106314302830184F0BD70B505460C467B
:103160005D4885420ED05D4885420BD0B5F1804F59
:1031700008D05B48854205D05A48854202D05A485B
:10318000854200D100E000BF208850B92389A28881
:1031900061882846FFF7ABFFE1882846FFF79EFFCE
:1031A00025E0208804280AD12389A288618828463E
:1031B000FFF753FFE1882846FFF742FF17E020881A
:1031C00008280AD12389A28861882846FFF7FBFED8
:1031D000E1882846FFF7EEFE09E02389A28861888E
:1031E0002846FFF7A6FEE1882846FFF795FE70BD4A
:1031F0002DE9F04105460C4600260127608808B9F4
:10320000022600E00026A088012801D1022700E064
:1032100001272088A0B92389A28861882846FFF762
:1032200066FFE1882846FFF759FF23893A46314671
:103230002846FFF712FFE1882846FFF701FF13E059
:103240002389A28861882846FFF707FFE18828467E
:10325000FFF7F6FE23893A4631462846FFF747FF37
:10326000E1882846FFF73AFFBDE8F0810A884B88DD
:103270001A438B881A43CB881A430B891A434B890C
:103280001A438B891A43A0F8442070474FF6FF7108
:10329000818000210180C18041800172704700213E
:1032A000018041808180C180018141818181C18112
:1032B0007047002101804180012181800021C1806F
:1032C000018170470021018041808180C18001819E
:1032D0004181818170470000002C01400034014091
:1032E0000004004000080040000C004021B10288AA
:1032F00042F00102028004E002884FF6FE731A4099
:103300000280704731B1B0F8442042F40042A0F886
:10331000442005E0B0F84420C2F30E02A0F8442097
:1033200070471AB183890B43838102E083898B4301
:10333000838170478182704741EA0203A0F84830D8
:1033400070471AB183890B43838102E083898B43E1
:103350008381704701894FF6F872114001817047EF
:103360000A46002101894FF68F73194011430181EC
:10337000704730B504460D4629462046FFF7F0FF5A
:10338000208940F00700208130BD2DE9F04104463E
:103390000D4616461F46602D06D13B46012231469A
:1033A0002046FFF75AFE05E03B4601223146204603
:1033B000FFF79DFE29462046FFF7D2FF208940F007
:1033C00007002081BDE8F08130B50C46002101895D
:1033D000C9B24FF6FF7505EA032515432543294376
:1033E000018130BD2DE9F04105460E46174698464D
:1033F000002443463A4631462846FFF7E5FF2C892C
:103400004FF6F870044044F007044FF68F70044004
:1034100044F070042C81BDE8F081F0B504460D46FF
:1034200016461F463B46324629462046FFF7CCFF4C
:10343000208940F480402081F0BD01858282704760
:103440000A46002101884FF68F731940114301800D
:103450007047F0B50C4615461E4600210022002399
:103460000189028B038C4FF6F877394021434FF6E0
:10347000FC473A4040F201173A434FF6DD773B40B4
:103480004FF6FF7707EA06172F433B43018102837C
:103490000384F0BD0A460021018B4FF68F7319405B
:1034A0001143018370470A460021018B48F6FF73E0
:1034B00019404FF6FF7303EA022319430183704753
:1034C0000A460021818B4FF68F7319401143818387
:1034D00070470A460021818B48F6FF7319404FF66A
:1034E000FF7303EA022319438183704721B10288E5
:1034F00042F08002028004E002884FF67F731A4097
:103500000280704721B1828842F00402828004E088
:1035100082884FF6FB731A408280704721B18288FF
:1035200042F00802828004E082884FF6F7731A4066
:103530008280704721B1828842F00102828004E0DB
:1035400082884FF6FE731A40828070470A46002137
:10355000018B4FF6F77319401143018370470A46F8
:103560000021018B4FF2FF7319404FF6FF7303EAFE
:1035700002231943018370470A460021818B4FF6CD
:10358000F77319401143818370470A460021818BEC
:103590004FF2FF7319404FF6FF7303EA02231943FA
:1035A000818370470A460021018B4FF6FB73194057
:1035B0001143018370470A460021018B4FF6FF3308
:1035C00019404FF6FF7303EA022319430183704742
:1035D0000A460021818B4FF6FB731940114381830A
:1035E00070470A460021818B4FF6FF3319404FF692
:1035F000FF7303EA02231943818370470A460021BF
:10360000018B4FF67F7319401143018370470A46BF
:103610000021018BC1F30E014FF6FF7303EA022371
:103620001943018370470A460021818B4FF67F734F
:1036300019401143818370470A460021818BC1F3F1
:103640000E014FF6FF7303EA02231943818370478B
:103650000A460021018C4FF6FD7319401143018485
:1036600070470A460021018C4FF6F7731940114349
:10367000018470470A460021018C4FF6DF73194020
:103680004FF6FF7303EA02131943018470470A4699
:103690000021018C4FF67F7319404FF6FF7303EA48
:1036A00002131943018470470A460021018C4FF62A
:1036B000FF5319404FF6FF7303EA022319430184B5
:1036C00070470A460021018C4FF2FF7319404FF6F4
:1036D000FF7303EA02231943018470470A4600215D
:1036E000018C4DF6FF7319404FF6FF7303EA023366
:1036F00019430184704730B5002301248C40A3B2E4
:10370000048C9C430484048C02FA01F5ADB22C4372
:10371000048430BD30B5002304248C40A3B2048C53
:103720009C430484048C02FA01F5ADB22C4304845A
:1037300030BD70B50346002000241846183001251E
:103740008D40ACB21D8CA5431D8409B1082909D157
:1037500000EB6100056825F07005056005681543FC
:1037600005600EE00D1FC5F34E052844056825F4DD
:10377000E045056005684FF6FF7606EA0226354308
:10378000056070BD21B1028842F00202028004E0AF
:1037900002884FF6FD731A400280704721B10288FB
:1037A00042F00402028004E002884FF6FB731A40E4
:1037B0000280704721B1828842F08002828004E05A
:1037C00082884FF67F731A408280704702884FF6D6
:1037D000F7731A40028002880A4302807047828889
:1037E0004FF68F731A40828082880A438280704726
:1037F00002894FF6F8731A40028102890A43028156
:10380000704702894FF67F731A40028102890A438A
:103810000281704781847047818570478186704737
:103820000187704781877047A0F840107047028871
:103830004FF6FF431A40028002880A430280704715
:103840000146888E70470146088F70470146888F71
:1038500070470146B1F8400070470146888C7047B8
:103860000146088D704702460020138A0B400BB1B9
:10387000012000E000207047CA430282704730B543
:103880000246002000230024158A05EA01039589D9
:1038900005EA010413B10CB1012000E0002030BDA5
:1038A000CA4302827047000010B50446FB488442B8
:1038B00009D101218803FFF79FF800214FF48040D0
:1038C000FFF79AF832E0F648844209D10121480412
:1038D000FFF79FF800214FF40030FFF79AF825E03A
:1038E000F048844209D101218804FFF792F80021B1
:1038F0004FF48020FFF78DF818E0EB48844209D19F
:103900000121C804FFF785F800214FF40020FFF7DC
:1039100080F80BE0E548844208D101210805FFF753
:1039200078F800214FF48010FFF773F810BD2DE9EF
:10393000F04786B005460E460024A24600BFA146C9
:103940000027B08900B100BF2F462C8A4CF6FF70CB
:103950000440F08804432C82AC894EF6F3100440F6
:10396000B08831890843718908430443AC81AC8A2B
:103970004FF6FF400440B0890443AC8201A8FEF733
:10398000B4FFC648874202D1DDF810A001E0DDF89F
:103990000CA0A88900F4004040B10AEBCA0000EB7B
:1039A0000A1031684900B0FBF1F807E00AEBCA00E1
:1039B00000EB0A1031688900B0FBF1F86420B8FB15
:1039C000F0F004012009642101FB1089A88900F4AA
:1039D000004040B1322000EBC900B0FBF1F000F034
:1039E0000700044308E0322000EB09106421B0FB1B
:1039F000F1F000F00F0004432C8106B0BDE8F08721
:103A00004FF41651016000218180C18001810C2199
:103A1000418100218181704710B502460020108A43
:103A20004FF2FF0318400B884C8823438C882343B4
:103A3000CC8823431843108210BD002101804180AF
:103A40008180C180704721B1828942F40052828115
:103A500004E082894DF6FF731A4082817047F0B509
:103A60000346002400260025002040F66A17B942CC
:103A700000D100BF1846C1F3421401F01F06012710
:103A800007FA06F5012C01D10C3004E0022C01D11B
:103A9000103000E014301AB107682F43076002E0CD
:103AA0000768AF430760F0BD1AB1838A0B43838276
:103AB00002E0838A8B4383827047028A4FF6F07359
:103AC0001A400282028A0A430282704782894FF2B8
:103AD000FF731A40828182890A438281704721B133
:103AE000828942F00202828104E082894FF6FD73EE
:103AF0001A4082817047028A4FF6DF731A400282B1
:103B0000028A0A430282704721B1028A42F480424B
:103B1000028204E0028A4BF6FF731A400282704769
:103B2000C1F308028280704701468888C0F308000C
:103B30007047818941F0010181817047028BD2B2C7
:103B40000283028B42EA012202837047028B02F455
:103B50007F420283028B0A430283704721B1828A2B
:103B600042F02002828204E0828A4FF6DF731A401C
:103B70008282704721B1828A42F01002828204E080
:103B8000828A4FF6EF731A408282704721B1828A8F
:103B900042F00802828204E0828A4FF6F7731A40EC
:103BA0008282704721B1828942F40042828103E01F
:103BB0008289C2F30E028281704721B1828A42F467
:103BC0000062828204E0828A4FF2FF731A4082828E
:103BD0007047828A4FF6FB731A408282828A0A43B8
:103BE0008282704721B1828A42F00202828204E01E
:103BF000828A4FF6FD731A40828270470246002087
:103C0000B1F5007F00D100BF13880B400BB101203C
:103C100000E00020704701F40072B2F5007F00D18F
:103C200000BFCA430280704770B5024600240023DB
:103C30000025002040F66A16B14200D100BFC1F352
:103C4000421501F01F03012606FA03F3012D02D1EC
:103C50009689334006E0022D02D1168A334001E0F6
:103C6000968A33400C12012606FA04F41688344072
:103C700013B10CB1012000E0002070BD10B500228E
:103C8000002340F66A14A14200D100BF0A120124A9
:103C90009440A3B2DC43048010BD00000038014012
:103CA0000044004000480040004C004000500040EC
:103CB00008B54FF4A060FDF7B1FA0B208DF80000B5
:103CC00000208DF801008DF8020001208DF803001E
:103CD0006846FDF7A8FA37208DF8000002208DF81D
:103CE000010000208DF8020001208DF803006846D5
:103CF000FDF799FA27208DF8000000208DF80100CB
:103D000001208DF802008DF803006846FDF78BFA5C
:103D100008BD08B501210420FEF754FE0121480624
:103D2000FEF75DFE4FF40060ADF8000048208DF80E
:103D3000030003208DF802006946F948FEF786FB70
:103D40004FF48050ADF8000018208DF803000320D8
:103D50008DF802006946F248FEF778FB08BD08B509
:103D600014208DF8000000208DF801008DF802006D
:103D700001208DF803006846FDF755FA08BD0EB521
:103D8000E848FDF7E1FC6846FDF702FE00208DF8EB
:103D9000060001208DF807008DF8080000208DF83E
:103DA00009008DF80A008DF80B008DF802008DF8DF
:103DB000030004208DF8040002208DF80500042083
:103DC000ADF800006946D748FDF7D7FC0EBD1FB51A
:103DD00000208DF80A008DF80B0001208DF80C00F2
:103DE0000020ADF80000ADF802004FF4F070ADF81F
:103DF00004000020ADF80600ADF8080001208DF8A1
:103E00000D006846FDF743FD01220221C548FEF77B
:103E10003DF801221146C348FEF738F81FBD10B522
:103E2000FFF777FFFFF79BFFFFF7A9FFFFF7CFFF34
:103E300010BD2DE9F04106460D461746BA48076009
:103E40000020B9490872487208468572002405E0CE
:103E5000315DB5480B300155601CC4B2AC42F7DB94
:103E6000B149B048FDF702FEBDE8F0810EB5012171
:103E70002020FEF7B4FD41F28730ADF80400472062
:103E8000ADF800000020ADF80600ADF802008DF896
:103E900008006946A548FEF7CDFE0121A348FFF7BB
:103EA0007DFC01221146A148FFF73BFA01219F4802
:103EB000FFF71CFA0EBD10B5FFF7D8FF10BD9C48E8
:103EC000806940F004009A4988610846806940F0A2
:103ED000080088619248001D006820F47F20904906
:103EE000091D08600846006840F44C30086091489D
:103EF000006820F070408F4908600846006840F074
:103F00004050086070478A48806940F00100884945
:103F100088610846806940F004008861084680692D
:103F200040F0080088610846806940F01000886110
:103F30000846806940F0200088617F48406820F092
:103F4000E0607D4948600846406840F00070486085
:103F50007348001D006820F070407149091D086019
:103F60000846006840F04050086072480068734995
:103F700008407049086008460068714908436D4967
:103F80000860081D006880B2091D086008460068C6
:103F90006C4908436749091D08606B48006820F0B8
:103FA0007F40694908600846006840F04C5008604E
:103FB000084640686FF3130048600846406863494C
:103FC0000843614948606248006820F470606049B5
:103FD0000860084600685F4908435D49086070470B
:103FE0005348806940F00400514988614C48001DE5
:103FF000006820F00F004A49091D08600846006863
:1040000040F00800086046480C30006840F48070BA
:1040100043490C310860704710B56FF00400FDF79C
:104020004CF910BD014601EBC10222F060424FF491
:104030007A735A434FF0E0235A6100229A610122B9
:104040001A6100BF4FF0E022106900F001021AB1BE
:1040500000F48032002AF5D000224FF0E0231A61EC
:104060009A617047014601EBC10222F060424FF0B5
:10407000E0235A6100229A6101221A6100BF4FF0C9
:10408000E022106900F001021AB100F48032002A27
:10409000F5D000224FF0E0231A619A61704700B515
:1040A00085B001212C48FEF79AFC4FF40060ADF872
:1040B000100004208DF8130004A91E48FEF7C6F96D
:1040C0004FF48060ADF8100003208DF81200182026
:1040D0008DF8130004A91748FEF7B8F91F480088A7
:1040E00040F020001D4908804FF4E130009000208E
:1040F000ADF80400ADF80600ADF80800ADF80C000E
:104100000420ADF80A00694614480C38FFF70FFC8C
:10411000012112480C38FFF796FC05B000BD0000E5
:10412000000801400064004094000020001400409A
:1041300000100240000C014000000140FF0F00FF92
:1041400000303300000033330010014033330300EC
:104150000014014000030033080004000C48004034
:1041600000B57A48406940F001007849486105206F
:10417000FFF758FF76487749086177484861102073
:10418000C8600846806888600846806840F0200063
:1041900088600846806888600846806840F0800033
:1041A00088600846806840F48070886008468068AF
:1041B00040F4806088600846806840F44050886021
:1041C0000846806888600846806840F00200886081
:1041D0000846806840F00100886000BD5B48806947
:1041E00040F00400594988610846806940F00800A1
:1041F00088610846806940F010008861574800686F
:104200000020564908605648006820F0FF005449D5
:1042100008605448006800F07F40524908604B48ED
:10422000806940F40070494988610846C06840F4DC
:104230000070C8600846C06820F40070C860084676
:10424000406820F4404048600846406840F4004020
:1042500048603F4848380068434908403C4948396D
:1042600008600846006808600846006840F48070EE
:104270000860081D006840F00200091D086008463B
:10428000006820F40060086038483149203908602F
:104290003748091D08603748091D08602C48403818
:1042A000006800202A49403908600846006860F02C
:1042B0007F400860081D006860F04040091D0860EC
:1042C00023484438006840F001002149443908601F
:1042D0000846006840F00800086000BF1C484438E9
:1042E000006800F008000028F8D119484438006838
:1042F00040F0040016494439086000BF14484438AF
:10430000006800F004000028F8D1704710B5FFF7EE
:10431000CFFCFFF763FFFFF723FF01210C484C3868
:10432000FDF748F80A484438006840F001000849A1
:1043300044390860FFF7C3FDFFF7E5FDFFF750FEC6
:10434000FFF76DFDFFF7B7FD10BD00000010024044
:104350004C24014000000240A80000200008014059
:10436000000C014000100140FFFFF000EEA1F4003E
:104370006C91620E6A88001AF0B502460B46581C12
:1043800000EBD077C7F34705002417E0194611E08A
:1043900032F81170481E32F81000874208DD481EBE
:1043A00032F8106032F8117022F8107022F81160A3
:1043B000481EC1B2A142EBDC601CC4B2AC42E5DBDA
:1043C000681E32F81000F0BD10B50346002005E06D
:1043D00033F8104021F81040441CE0B29042F7DB63
:1043E00010BD00B509225F495F48FFF7EDFF0921C5
:1043F0005C48FFF7C1FF5D490880092259495A48C6
:104400001230FFF7E1FF09215648FFF7B5FF574982
:1044100048800922534954482430FFF7D5FF092129
:104420005048FFF7A9FF5149888009224D494E485D
:104430003630FFF7C9FF09214A48FFF79DFF4B4976
:10444000C8800922474948484830FFF7BDFF092185
:104450004448FFF791FF45490881092241494248F4
:104460005A30FFF7B1FF09213E48FFF785FF3F496A
:10447000488109223B493C486C30FFF7A5FF0921E0
:104480003848FFF779FF394988810922354936488C
:104490007E30FFF799FF09213248FFF76DFF33495E
:1044A000C88109222F4930489030FFF78DFF09213C
:1044B0002C48FFF761FF2D490882092229492A4823
:1044C000A230FFF781FF09212648FFF755FF274952
:1044D0004882092223492448B430FFF775FF092197
:1044E0002048FFF749FF2149888209221D491E48BB
:1044F000C630FFF769FF09211A48FFF73DFF1B4946
:10450000C882092217491848D830FFF75DFF0921F2
:104510001448FFF731FF1549088309221149124851
:10452000EA30FFF751FF09210E48FFF725FF0F4939
:10453000488309220B490C48FC30FFF745FF09214D
:104540000848FFF719FF09498883092205490848E7
:10455000FFF73AFF09210348FFF70EFF0349C8831D
:1045600000BD0000E8010020C8000020FA01002082
:10457000D60100208A488B4948608B4848607047C4
:104580008848006940F08000864908617047854886
:10459000C16801F0010008B10120704701F004007A
:1045A00008B10220F9E701F0100008B10320F4E798
:1045B0000020F2E770B5044600BFFFF7E8FF0546AC
:1045C000012D00D006E00120FFF74CFD601E84B2F3
:1045D000002CF2D100BF04B9FF25284670BD70B58C
:1045E0000546002445F6FF70FFF7E4FF0446C4B912
:1045F0006C48006940F002006A490861084645615C
:10460000006940F04000086145F6FF70FFF7D2FFF7
:104610000446012C05D06348006920F0020061497E
:104620000861204670BD70B505460E46FF20FFF7B5
:10463000C1FF044694B95B48006940F00100594944
:1046400008612E80FF20FFF7B5FF0446012C05D03E
:104650005448006920F0010052490861204670BDAD
:104660000146088870472DE9F04105460E46174679
:10467000002407E036F814102846FFF7D4FFAD1CDD
:10468000601C84B2BC42F5DBBDE8F08130B5034666
:104690000C461546002207E01846FFF7E1FF24F814
:1046A00012009B1C501C82B2AA42F5DB30BD2DE9E2
:1046B000F05F80468A461746B8F1006F02D33B4848
:1046C000804501D3BDE8F09FFFF754FFA8F1006BD0
:1046D0004FEA9B25CBF34809C9F50074A74200DCDB
:1046E0003C464EE04FF0006101EB85208A143049D2
:1046F000FFF7CCFF00260BE009EB06002C4931F850
:1047000010004FF6FF71884200D003E0701C86B2A3
:10471000A642F1DB00BFA6421BDA4FF0006101EBBD
:104720008520FFF75CFF002608E03AF8160006EB4C
:1047300009011F4A22F81100701C86B2A642F4DB60
:104740004FF0006101EB85208A141949FFF78BFFB8
:1047500004E0224651464046FFF785FFA74200D1BC
:1047600010E06D1C4FF000090AEB440A08EB440806
:10477000381B87B2B7F5007F02DD4FF4007400E00C
:104780003C46AFE700BFFFF7FBFE00BF9AE713B55B
:104790000446012201A92046FFF789FF1CBD000045
:1047A0002301674500200240AB89EFCD008000085F
:1047B0001A020020704770477047754600F02CF8C9
:1047C000AE4605006946534620F00700854618B0FE
:1047D00020B5FCF711FDBDE820404FF000064FF07A
:1047E00000074FF000084FF0000B21F00701AC4626
:1047F000ACE8C009ACE8C009ACE8C009ACE8C00945
:104800008D46704710B50446AFF300802046BDE8E2
:104810001040FBF7D4BC0000004870471C06002085
:1048200001491820ABBEFEE72600020070470000D9
:104830005048000800000020540000006C010008EF
:10484000A4480008540000202C0C00008801000837
:104850000000000000000000000088138813881387
:104860008813881388138813881388138813881370
:1048700088138813881388138813000000A24A0441
:104880000000000000000000010203040607080900
:1048900000000000010203040102030406070809E6
:0448A0000204060800
:0400000508000131BD
:00000001FF
